:100000000C9408090C9439090C9439090C94390999
:100010000C9439090C9439090C9439090C94390958
:100020000C9439090C9439090C9439090C94390948
:100030000C9439090C9439090C9439090C94390938
:100040000C9439090C94B2290C9439090C9439098F
:100050000C9439090C9439090C94DA250C94762502
:100060000C9439090C94F90B0C9439090C94390946
:100070000C9439090C9439090C9439090C943909F8
:100080000C94E7350C9439090C9439090C9439090E
:100090000C9439090C9439090C9439090C943909D8
:1000A0000C9439090C9439090C94BA350C9439091B
:1000B0000C9439090C9439090C9439090C948D3538
:1000C0000C9439090C9439090C9439090C943909A8
:1000D0000C9439090C9439090C9439090C94390998
:1000E0000C94390978237B236A236E237423B2236B
:1000F0007F23832389238D23912397239B239F236E
:10010000B223A523A923AD23922497249C24A624BB
:10011000B0242925BA24C224CA24D424DE24E82405
:10012000F724012529250B2515251F2536264326CD
:100130005F266C2686269326AD26AF26B126B326EB
:10014000BB26084AD73B3BCE016E84BCBFFDC12F06
:100150003D6C74319ABD56833DDA3D00C77F11BEB8
:10016000D9E4BB4C3E916BAAAABE000000803F05BB
:10017000A84CCDB2D44EB93836A9020C50B99186EC
:1001800088083CA6AAAA2ABE000000803F004E4173
:100190004E494E495459494E46CDCCCC3D0AD72301
:1001A0003C17B7D13877CC2B329595E6241FB14F49
:1001B0000A000020410000C84200401C4620BCBE8E
:1001C0004CCA1B0E5AAEC59D7450494420417574EB
:1001D0006F74756E652066696E6973686564212049
:1001E00050757420746865206C617374204B702C9A
:1001F000204B6920616E64204B6420636F6E7374C2
:10020000616E74732066726F6D2061626F76652017
:10021000696E746F20436F6E666967757261746989
:100220006F6E2E6800504944204175746F74756E6E
:1002300065206661696C6564212074696D656F7500
:10024000740020403A006F6B20543A006F6B2042DC
:100250003A00504944204175746F74756E6520668C
:1002600061696C6564212054656D70657261747597
:10027000726520746F6F206869676800204B643A6C
:100280002000204B693A2000204B703A2000204388
:100290006C61737369632050494420002054753A9F
:1002A0002000204B753A2000206D61783A20002014
:1002B0006D696E3A200020643A2000206269617303
:1002C0003A20002200556E6B6E6F776E20636F6D63
:1002D0006D616E643A202200795F6D696E3A20008C
:1002E000785F6D696E3A200063616C696272617457
:1002F000696F6E2066696E69736865640020526F6D
:10030000746174696F6E2041726D0020536D616C71
:100310006C2041726D3A004269672041726D3A006B
:10032000205A3A0020593A0020436F756E742058C5
:100330003A2000205A3A0020593A00583A004649DB
:10034000524D574152455F4E414D453A4D61726C99
:10035000696E2056312E302E323B20537072696EFA
:100360007465722F6772626C206D6173687570209E
:10037000666F722067656E36204649524D5741526E
:10038000455F55524C3A68747470733A2F2F676901
:10039000746875622E636F6D2F4D61726C696E4665
:1003A00069726D776172652F4D61726C696E205054
:1003B000524F544F434F4C5F56455253494F4E3A5C
:1003C000312E30204D414348494E455F54595045E8
:1003D0003A64726177626F742045585452554445AF
:1003E000525F434F554E543A3120555549443A30A7
:1003F000303030303030302D303030302D30303003
:10040000302D303030302D303030303030303030F2
:100410003030300A0020423A0020453A00543A0079
:1004200020573A0020453A00543A005700204240F5
:100430003A00570020403A00202F003A0020540094
:10044000202F0020423A00202F006F6B20543A00EA
:100450002569206D696E2C20256920736563002055
:100460005A3A0020593A0020583A00656E64737475
:100470006F7073206869743A20006563686F3A0092
:10048000557365722053657474696E677320736168
:1004900076656400205400094D34204C0073657269
:1004A000766F20616E676C65A3A84C2070656E2026
:1004B000646F776E20542070656E207570A3A93A22
:1004C000002000094D3230352058006D6F74696F7F
:1004D0006E206A65726B3A002000205900094D3287
:1004E0003031205800416363656C65726174696FD7
:1004F0006E206F66206D6F74696F6E286D6D2F733F
:1005000032293A002000205900094D32303320585A
:10051000004D6178696D756D2076656C6F636974E7
:1005200079206F66206D6F74696F6E286D6D2F7303
:10053000293A002000205900094D33363720580051
:10054000436F6F7264696E617465206D6967726173
:1005500074696F6E2073657474696E673A00200069
:10056000205900094D39322058004D6F746F7220A8
:100570007265736F6C7574696F6E3A002000557305
:1005800065722053657474696E6773206C6F616463
:100590006564002000466163746F7279205365744E
:1005A00074696E67732068617665206265656E2088
:1005B000726573746F726564002000200041756776
:1005C00020333020323032342000202055706461D6
:1005D00074652074696D653A0064726177626F7446
:1005E0005F5637004669726D776172652076657275
:1005F00073696F6E3A00200051513A31303238320F
:1006000034303132362020202020004D472D6D61BE
:100610006B6520202020200020536F667477617264
:100620006520526573657400205761746368646F58
:1006300067205265736574002042726F776E206F79
:100640007574205265736574002045787465726E08
:10065000616C20526573657400506F7765725570D8
:1006600000200068747470733A2F2F73686F7036AF
:10067000353631343633352E74616F62616F2E63D7
:100680006F6D2F2020202020200020005072696EE6
:100690007465722073746F70706564206475652072
:1006A000746F206572726F72732E204669782074A1
:1006B0006865206572726F7220616E642075736563
:1006C000204D39393920746F2072657374617274EA
:1006D0002E202854656D706572617475726520698D
:1006E000732072657365742E2053657420697420BD
:1006F00061667465722072657374617274696E6785
:1007000029004E6F204C696E65204E756D626572D2
:10071000207769746820636865636B73756D2C203E
:100720004C617374204C696E653A20004E6F204313
:100730006865636B73756D2077697468206C696E8A
:1007400065206E756D6265722C204C617374204C4F
:10075000696E653A2000636865636B73756D206D23
:1007600069736D617463682C204C617374204C69EB
:100770006E653A20004C696E65204E756D6265723B
:10078000206973206E6F74204C617374204C696E05
:1007900065204E756D6265722B312C204C6173742F
:1007A000204C696E653A20004D313130003A2045C9
:1007B00078747275646572207377697463686564B0
:1007C000206F66662E204D415854454D502074725E
:1007D000696767657265642021003A204578747204
:1007E00075646572207377697463686564206F66E9
:1007F000662E204D494E54454D50207472696767EE
:10080000657265642021004572726F723A000000C3
:100810002100240027002A002D00300033000101B0
:100820000000040107010A01000022002500280041
:100830002B002E00310034000201000005010801E8
:100840000B01000020002300260029002C002F00AF
:10085000320000010000030106010901050505053C
:10086000070508080808020202020A0A0808040428
:100870000404010101010101010103030303030356
:100880000303040707070C0C0C0C0C0C0C0C0202E5
:10089000020206060606060606060B0B0B0B0B0BE2
:1008A0000B0B01021020200808102040102040806F
:1008B0000201020108040201010204081020408024
:1008C00080402010080402018004020180402010B2
:1008D00008040201080402010102040810204080FB
:1008E000010204081020408000000A0B02090C0DD0
:1008F0000E080703040100000000000000000000D3
:1009000000000000000000000000000000000000E7
:1009100000000000121110000000000000000000A4
:10092000000000000000000000000000000024F4AF
:10093000D43050C38E20C2A24017828B7011127A1D
:10094000910D816CD90AA861E108C7586607615109
:1009500043061E4B5D05C145A7041A411104093D1C
:100960009803713931034036DB0265339102D4308C
:100970005402802E1D02632CEE01752AC501B02899
:10098000A001102781018F2564012B244B01E02257
:100990003401AC211F018D200D01801FFC00841E3D
:1009A000ED00971DDF00B81CD200E61BC600201B1F
:1009B000BC00641AB200B219A8000A19A0006A1893
:1009C0009900D117910040178B00B516840031169D
:1009D0007E00B31579003A157300C7146F005814E0
:1009E0006A00EE1366008813630025135E00C712C9
:1009F0005B006C12570015125400C11151007011A8
:100A00004F0021114B00D61049008D1047004610B1
:100A1000440002104200C00F4000800F3E00420F11
:100A20003C00060F3B00CB0E3800930E37005C0EE7
:100A30003500270E3400F30D3200C10D3100900D4A
:100A40003000600D2E00320D2D00050D2C00D90C4C
:100A50002B00AE0C2900850C29005C0C2700350CFE
:100A600027000E0C2600E80B2400C40B2400A00B6A
:100A700023007D0B23005A0B2100390B2100180B9A
:100A80002000F80A1F00D90A1E00BB0A1E009D0A9A
:100A90001D00800A1D00630A1C00470A1B002C0A67
:100AA0001B00110A1A00F7091A00DD091900C40910
:100AB0001900AB091900920917007B091800630996
:100AC00017004C09160036091600200916000A09FD
:100AD0001500F5081500E0081400CC081400B8084B
:100AE0001400A4081400900813007D0812006B087D
:100AF0001300580812004608120034081100230899
:100B000011001208110001081100F0071000E007A1
:100B10001000D0071000C0071000B0070F00A10799
:100B2000100091070E0083070F0074070F00650780
:100B30000E0057070E0049070E003B070D002E0759
:100B40000E0020070D0013070D0006070D00F90623
:100B50000C00ED060D00E0060C00D4060C00C806E3
:100B60000C00BC060C00B0060C00A4060B00990695
:100B70000C008D060B0082060B0077060B006C063E
:100B80000B0061060A0057060B004C060A004206DD
:100B90000A0038060A002E060A0024060A001A0671
:100BA0000A001006090007060A00FD050900F40501
:100BB0000900EB050900E2050900D9050900D00587
:100BC0000900C7050900BE050900B5050800AD0507
:100BD0000800A50509009C050800940508008C057F
:100BE0000800840508007C050800740508006C05F1
:100BF0000700650508005D050700560508004E055D
:100C000007004705070040050800380507003105C3
:100C100007002A050700230507001C050600160526
:100C200007000F0507000805060002050700FB0482
:100C30000600F5040700EE040600E8040600E204DE
:100C40000700DB040600D5040600CF040600C90433
:100C50000600C3040600BD040600B7040600B10484
:100C60000500AC040600A6040600A00405009B04D1
:100C7000060095040500900406008A04050085041A
:100C80000500800406007A04050075040500700460
:100C900005006B04050066040500610405005C04A2
:100CA000050057040500520405004D0405004804E2
:100CB0000500430405003E0404003A040500350421
:100CC0000500300404002C0405002704040023045C
:100CD00005001E0404001A04040016040500110493
:100CE00004000D04040009040500040404000004C9
:100CF0000400FC030400F8030400F4030400F00300
:100D00000400EC030400E8030400E4030400E0032F
:100D10000400DC030400D8030400D4030400D0035F
:100D20000400CC030400C8030300C503030024F43B
:100D300004D9201BC40C5C0E9804C4095F0265072B
:100D40007101F405F900FB04B30048048700C103F6
:100D500069005803550003034500BE023A008402AF
:100D6000310053022A002902250004022000E40178
:100D70001C00C8011900AF0117009801140084017C
:100D80001300710110006101100051010E004301B8
:100D90000D0036010B002B010B0020010B0015018B
:100DA00009000C01090003010800FB000800F30022
:100DB0000800EB000700E4000600DE000600D80093
:100DC0000600D2000600CC000500C7000500C200E6
:100DD0000500BD000400B9000400B5000400B10026
:100DE0000400AD000400A9000400A5000300A20057
:100DF00003009F0004009B0003009800030095007F
:100E0000020093000300900003008D0002008B009D
:100E100003008800020086000200840003008100B5
:100E200002007F0002007D0002007B0002007900CA
:100E300002007700010076000200740002007200D8
:100E40000100710002006F0002006D0001006C00E3
:100E500002006A00010069000200670001006600EC
:100E600001006500010064000200620001006100F1
:100E70000100600001005F0002005D0001005C00F5
:100E800001005B0001005A000100590001005800F8
:100E900001005700010056000100550001005400F8
:100EA00001005300000053000100520001005100F6
:100EB0000100500001004F0001004E0000004E00F4
:100EC00001004D0001004C0001004B0000004B00F0
:100ED00001004A00010049000100480000004800EC
:100EE00001004700010046000000460001004500E7
:100EF00000004500010044000100430000004300E1
:100F000001004200000042000100410000004100D9
:100F10000100400001003F0000003F0001003E00D2
:100F200000003E0001003D0000003D0001003C00CB
:100F300000003C0000003C0001003B0000003B00C2
:100F400001003A0000003A000100390000003900B9
:100F500001003800000038000000380001003700B0
:100F600000003700010036000000360000003600A7
:100F7000010035000000350000003500010034009C
:100F80000000340000003400010033000000330092
:100F90000000330001003200000032000000320087
:100FA000010031000000310000003100010030007C
:100FB000000030000000300001002F0000002F0072
:100FC00000002F0000002F0001002E0000002E0066
:100FD00000002E0001002D0000002D0000002D005B
:100FE00000002D0001002C0000002C0000002C004F
:100FF00000002C0001002B0000002B0000002B0043
:1010000000002B0001002A0000002A0000002A0036
:1010100000002A000100290000002900000029002A
:10102000000029000000290001002800000028001D
:101030000000280000002800000028000100270010
:101040000000270000002700000027000000270004
:1010500001002600000026000000260000002600F7
:1010600000002600010025000000250000002500EA
:1010700000002500000025000000250001002400DC
:1010800000002400000024000000240000002400D0
:1010900001002300000023000000230000002300C3
:1010A00000002300000023000000230001002200B4
:1010B00000002200000022000000220000002200A8
:1010C000000022000100210000002100000021009A
:1010D000000021000000210000002100000021008C
:1010E000010020000000200000002000000020007F
:1010F0000000200000002000000020000000200070
:1011000001001F0000001F0000001F0000001F0062
:1011100000001F0000001F0000001F0001001E0053
:1011200000001E0000001E0000001E0000005265AE
:1011300073656E643A20006F6B005072696E74655F
:10114000722068616C7465642E206B696C6C282950
:101150002063616C6C656421005072696E74657205
:101160002073746F707065642064756520746F20DF
:101170006572726F72732E204669782074686520DC
:101180006572726F7220616E6420757365204D39CF
:10119000393920746F20726573746172742E20283F
:1011A00054656D7065726174757265206973207223
:1011B000657365742E2053657420697420616674AC
:1011C00065722072657374617274696E67290000BC
:1011D00000FA430000FA43000061430000FAC30034
:1011E00000FAC3CDCCCC3D0000B0C1000050C2CD50
:1011F000CCCC3D000040400000404000004040009A
:10120000007A4400007A4466E66043FFFF01A55976
:1012100011241FBECFEFD1E2DEBFCDBF00E00CBF77
:1012200014E0A0E0B2E0EAE4F8EC00E00BBF02C09A
:1012300007900D92A436B107D9F72DE0A4E6B4E0EB
:1012400001C01D92A039B207E1F719E0C8E0D9E06A
:1012500000E006C021970109802FFE010E94E5638E
:10126000C730D10780E00807A9F70E94483D0C94D9
:1012700023640C940000FC01CB01BA0124912223C9
:1012800041F03091C00035FFFCCF2093C60031966D
:10129000F5CF4AE00C94D814EF92FF921F93CF93AE
:1012A000DF937C01C62FD72F142F160FF7018081F3
:1012B00091810E9476608993F701808191810196E6
:1012C000918380831C13F2CFDF91CF911F91FF9008
:1012D000EF900895EF92FF921F93CF93DF937C01DD
:1012E000C62FD72F142F160F6991F7018081918196
:1012F0000E947E60F70180819181019691838083B5
:101300001C13F2CFDF91CF911F91FF90EF900895C2
:10131000809170069091710660E070E001960C94E7
:101320007D5A4F925F926F927F928F929F92AF926F
:10133000BF92CF92DF92EF92FF920F931F93CF93C2
:10134000DF9380E6F82EC4E0D0E00CE816E09AE0E7
:10135000E92EDD24D3944091420D5091430D8091AC
:10136000440D9091450D9A01281B390B2F77332797
:10137000232B09F41CC220911F0C3091200C243027
:1013800031050CF014C24817590761F0FC01EE5307
:10139000F34F208101968F7799279093450D809385
:1013A000440D02C02FEF3FEF822F2093FF062091C4
:1013B000FC063091FD068A3061F08D3051F08A33A1
:1013C00021F49091FE06992321F02F3531050CF47C
:1013D00078C12115310519F41092FE06E8C18091FB
:1013E000FA069091FB06F89E5001F99EB00C11246C
:1013F0002A0D3B1DF901ED52FB4F10822091FE0694
:1014000021115AC11092FE06FC01EA50F94F1082D8
:10141000C5018D529B4F4C016EE470E00E94016447
:10142000009709F49DC09093710680937006881907
:1014300099098A0D9B1D4AE050E060E070E08C52F3
:101440009B4F0E94E35B6093F2067093F3068093D8
:10145000F4069093F5068090530690905406A09061
:101460005506B090560624013501EFEF4E1A5E0A7C
:101470006E0A7E0AA090FA06B090FB066415750508
:101480008605970509F43CC1FA9CC001FB9C900DB0
:10149000112468EA77E08D529B4F0E942B5D892BC7
:1014A00009F02EC1E7E0F8E08491882341F09091A3
:1014B000C00095FFFCCF8093C6003196F5CFE5E7DD
:1014C000F7E08491882341F09091C00095FFFCCF14
:1014D0008093C6003196F5CF609153067091540603
:1014E00080915506909156060E944D158091C0003E
:1014F00085FFFCCF2FC03093710620937006C90181
:101500008A199B09880D991D60E070E08C529B4FF1
:101510000E947D5A0E943D622C2D30E0261737072D
:1015200009F456C0E7E0F8E08491811107C1E6E5CF
:10153000F7E0849181110AC16091530670915406BD
:1015400080915506909156060E944D158091C000DD
:1015500085FFFCCF8AE08093C6000E94783C33C0B0
:101560006AE270E0C4010E940164892B09F440C062
:10157000E7E0F8E08491882341F09091C00095FF66
:10158000FCCF8093C6003196F5CFE2E0F7E084917E
:10159000882341F09091C00095FFFCCF8093C60056
:1015A0003196F5CF6091530670915406809155069F
:1015B000909156060E944D158091C00085FFFCCF8A
:1015C0008AE08093C6001092FD061092FC06EFC0E0
:1015D0008091F2069091F306A091F406B091F50681
:1015E0008093530690935406A0935506B0935606E5
:1015F0008091FA069091FB06F89E5001F99EB00C7E
:101600001124C5018D529B4F4C0167E470E00E948C
:101610000164009761F190937106809370068819B8
:1016200099098A0D9B1D60E070E08C529B4F0E94CF
:101630007D5A0E943D6264307105C8F48091AF0606
:101640008823A9F0F8018491ECE8F6E0882349F0BA
:101650009091C00095FFFCCF8093C6003196849195
:10166000F5CF8091C00085FFFCCFE092C600A0902E
:10167000FA06B090FB06FA9CC001FB9C900D112469
:1016800067ED73E08D529B4F0E940C64892B11F41F
:101690000E94FB37C5010196BE010E94D263909360
:1016A000FB068093FA0680911F0C9091200C019606
:1016B0009093200C80931F0C1092FD061092FC0654
:1016C0004ACE8B3311F4D092FE069091FE06911112
:1016D00042CE4091FA065091FB06B9016F5F7F4FF1
:1016E0007093FD066093FC06F49ED001F59EB00D4C
:1016F00011242A0F3B1FD901AD52BB4F8C932BCE27
:10170000FA9C4001FB9C900C1124C4018D529B4F0C
:101710005C016AE270E00E9401649C01892BF1F097
:1017200090E0C12CF401E90FF11DED52FB4F8081D7
:101730008A3209F4E0CE9F5FC826F4CF9091C000B2
:1017400095FFFCCF8093C6003196EECE9091C000FD
:1017500095FFFCCF8093C6003196EBCEE7E0F8E032
:101760008491882341F09091C00095FFFCCF809335
:10177000C6003196F5CFECE2F7E08491882341F082
:101780009091C00095FFFCCF8093C6003196F5CFB5
:1017900060915306709154068091550690915606BB
:1017A0000E944D158091C00085FFFCCFD3CEDF9104
:1017B000CF911F910F91FF90EF90DF90CF90BF904E
:1017C000AF909F908F907F906F905F904F90089513
:1017D000FC01CB01BA012491222341F03091C000D9
:1017E00035FFFCCF2093C6003196F5CF42E00C9434
:1017F0005F151F920F920FB60F9211240BB60F9226
:101800002F933F934F936F937F938F939F93EF9378
:10181000FF934091C6002091420D3091430DC901C4
:1018200001968F7799276091440D7091450D861729
:10183000970741F0F901EE53F34F40839093430D26
:101840008093420DFF91EF919F918F917F916F91C6
:101850004F913F912F910F900BBE0F900FBE0F90A5
:101860001F9018952F923F924F925F926F927F92A6
:101870008F929F92AF92BF92CF92DF92EF92FF92A0
:101880000F931F93CF93DF93CDB7DEB7E0970FB6DB
:10189000F894DEBF0FBECDBF80E1E0EEF2E0DE01E6
:1018A000919601900D928A95E1F780E1E0EFF2E0E8
:1018B000DE01519601900D928A95E1F780E1E0E01A
:1018C000F3E0DE01119601900D928A95E1F7DE01B9
:1018D000919605E61CE0BE016F5E7F4F44E257E043
:1018E000CE0101966C012FE536E090E7292E92E0BB
:1018F000392E7E0191E3E90EF11C812C912CE0E858
:10190000AE2EEFE3BE2E4D905D906D907D90F80170
:1019100041925192619271928F01FB0141905190DD
:1019200061907190BF01FA0141925192619271925E
:10193000AF01F60141905190619071906F01F901F2
:1019400041925192619271929F01F1018192919223
:10195000A192B1921F01AE15BF05A9F60E945431A4
:1019600080E090E0A0E2B1E48093300290933102F5
:10197000A0933202B093330280E090E0A4EBB2E493
:101980008093340290933502A0933602B0933702CD
:1019900080E090E0AAE7B4E480931C0790931D07D1
:1019A000A0931E07B0931F0780E090E0AAEFB4E475
:1019B0008093200790932107A0932207B0932307D9
:1019C000109234071092350710923607109237079D
:1019D00080E29EE4A0E0B0E080935B0690935C061A
:1019E000A0935D06B0935E061092380710923907F7
:1019F00010923A0710923B078AE999E9A9E9BFE3F7
:101A00008093080790930907A0930A07B0930B07E8
:101A10008DEC9CECACECBEE380930407909305073F
:101A2000A0930607B0930707C12CD12C80E4E82EC1
:101A3000FE2CC0920007D0920107E0920207F092BC
:101A4000030710928F061092900610929106109242
:101A5000920610928B0610928C0610928D061092B0
:101A60008E061092870610928806109289061092B0
:101A70008A0680E090E0A8E4B3E480936C0290933F
:101A80006D02A0936E02B0936F02809368029093F0
:101A90006902A0936A02B0936B021092EA06109258
:101AA000EB061092EC061092ED061092E6061092EC
:101AB000E7061092E8061092E90680E090E0A1E0C7
:101AC000B3EC8093010290930202A0930302B093BF
:101AD000040280E090E0A0E0B3E4809305029093DC
:101AE0000602A0930702B093080210920902109216
:101AF0000A0210920B0210920C0283E393E3AFE20E
:101B0000B2EC8093380290933902A0933A02B093DA
:101B10003B028AE999E9A1EBB2E480933C029093FD
:101B20003D02A0933E02B0933F02109240021092F9
:101B30004102109242021092430280E090E0A4EC35
:101B4000B1E48093250290932602A0932702B093DC
:101B5000280280EC9AEDA6E6BEE3809321029093E2
:101B60002202A0932302B09324028AEE94E5A7E216
:101B7000B4E480931D0290931E02A0931F02B093C1
:101B800020020E94682980E090E0A0E8BFE38093F3
:101B9000190290931A02A0931B02B0931C02109298
:101BA0006F06C0922B02D0922C02E0922D02F0928E
:101BB0002E020E947B37E9EBF5E08491882341F007
:101BC0009091C00095FFFCCF8093C6003196F5CF71
:101BD0008091C00085FFFCCF8AE08093C600E5E9D4
:101BE000F5E08491882341F09091C00095FFFCCFEF
:101BF0008093C6003196F5CF8091C00085FFFCCF61
:101C00008AE08093C600E0960FB6F894DEBF0FBE60
:101C1000CDBFDF91CF911F910F91FF90EF90DF909B
:101C2000CF90BF90AF909F908F907F906F905F907C
:101C30004F903F902F900895ECE7F5E08491882332
:101C400041F09091C00095FFFCCF8093C600319683
:101C5000F5CF8091C00085FFFCCF8AE08093C6005D
:101C6000EAE6F5E08491882341F09091C00095FF69
:101C7000FCCF8093C6003196F5CF8091C00085FFE0
:101C8000FCCF8AE08093C6004091650C5091660CB1
:101C90006091670C7091680C83E695E099DD409146
:101CA000690C50916A0C60916B0C70916C0C80E621
:101CB00095E08EDD8091C00085FFFCCF8AE08093A7
:101CC000C600EEE5F5E08491882341F09091C000D4
:101CD00095FFFCCF8093C6003196F5CF8091C00070
:101CE00085FFFCCF8AE08093C600E0E4F5E08491B4
:101CF000882341F09091C00095FFFCCF8093C600EF
:101D00003196F5CF8091C00085FFFCCF8AE08093AB
:101D1000C60040910102509102026091030270914D
:101D2000040288E395E054DD4091050250910602DB
:101D3000609107027091080285E395E049DD80918A
:101D4000C00085FFFCCF8AE08093C600E3E3F5E0A6
:101D50008491882341F09091C00095FFFCCF80933F
:101D6000C6003196F5CF8091C00085FFFCCF8AE098
:101D70008093C600E1E1F5E08491882341F09091E1
:101D8000C00095FFFCCF8093C6003196F5CF8091BF
:101D9000C00085FFFCCF8AE08093C60040912407F5
:101DA00050912507609126077091270789E095E0FB
:101DB0000FDD409128075091290760912A07709103
:101DC0002B0786E095E004DD8091C00085FFFCCF05
:101DD0008AE08093C600E4E0F5E08491882341F036
:101DE0009091C00095FFFCCF8093C6003196F5CF4F
:101DF0008091C00085FFFCCF8AE08093C600E5EEAD
:101E0000F4E08491882341F09091C00095FFFCCFCD
:101E10008093C6003196F5CF8091C00085FFFCCF3E
:101E20008AE08093C60040915F0650916006609101
:101E30006106709162068DED94E01DDA40916306B3
:101E40005091640660916506709166068AED94E093
:101E500012DA8091C00085FFFCCF8AE08093C60033
:101E6000E8EDF4E08491882341F09091C00095FF63
:101E7000FCCF8093C6003196F5CF8091C00085FFDE
:101E8000FCCF8AE08093C600EBECF4E084918823D9
:101E900041F09091C00095FFFCCF8093C600319631
:101EA000F5CF8091C00085FFFCCF8AE08093C6000B
:101EB000409108075091090760910A0770910B073C
:101EC00083EC94E085DC8091C00085FFFCCF8AE044
:101ED0008093C600E1ECF4E08491882341F0909176
:101EE000C00095FFFCCF8093C6003196F5CF80915E
:101EF000C00085FFFCCF8AE08093C600EDE9F4E0E6
:101F00008491882341F09091C00095FFFCCF80938D
:101F1000C6003196F5CF8091C00085FFFCCF8AE0E6
:101F20008093C6004091300250913102609132029C
:101F30007091330287E994E04BDC40913402509178
:101F40003502609136027091370284E994E040DCFA
:101F50008091C00085FFFCCF8AE08093C600089581
:101F6000CF93DF93CDB7DEB768970FB6F894DEBF97
:101F70000FBECDBF84E690E0988F8F8B86E591E30E
:101F8000A3E3B0E089839A83AB83BC8344E0BE01C2
:101F90006B5F7F4FCE0147967FD943E050E0BE0193
:101FA0006B5F7F4FCE0101960E941564892B09F06B
:101FB000FCC040E165E67CE0CE0147966DD940E18A
:101FC00064E277E0CE01479667D940E16FE576E0BD
:101FD000CE01479661D90E94543144E06CE177E02C
:101FE000CE01479659D944E060E277E0CE014796AA
:101FF00053D944E064E377E0CE0147964DD944E0FD
:1020000068E377E0CE01479647D944E06BE576E098
:10201000CE01479641D948E060E372E0CE01479691
:102020003BD944E068E077E0CE01479635D944E0FB
:1020300064E077E0CE0147962FD944E060E077E096
:10204000CE01479629D94CE067E876E0CE01479665
:1020500023D944E06CE672E0CE0147961DD944E0F6
:1020600068E672E0CE01479617D944E06AEE76E062
:10207000CE01479611D944E066EE76E0CE01479650
:102080000BD94CE061E072E0CE01479605D94CE0F7
:1020900068E372E0CE014796FFD842E0BE016B5E76
:1020A0007F4FCE014796F8D842E0BE016D5E7F4F6C
:1020B000CE014796F1D842E0BE016F5E7F4FCE0160
:1020C0004796EAD842E0BE01615F7F4FCE01479656
:1020D000E3D842E0BE01635F7F4FCE014796DCD874
:1020E00042E0BE01655F7F4FCE014796D5D844E000
:1020F00062EE76E0CE014796CFD844E065E272E02A
:10210000CE014796C9D844E061E272E0CE0147961D
:10211000C3D844E06DE172E0CE014796BDD842E0FD
:10212000BE01675F7F4FCE014796B6D84CE060E7AF
:1021300072E0CE014796B0D841E06FE676E0CE017E
:102140004796AAD844E06BE272E0CE014796A4D845
:102150000E947B370E946829E3E9F5E08491882397
:1021600041F09091C00095FFFCCF8093C60031965E
:10217000F5CF8091C00085FFFCCF8AE08093C60038
:10218000EEE7F5E08491882341F09091C00095FF3F
:10219000FCCF8093C6003196F5CF8091C00085FFBB
:1021A000FCCF8AE08093C60001C05CDB45DD689609
:1021B0000FB6F894DEBF0FBECDBFDF91CF9108956B
:1021C000269A2E9882E08093C0001092C50080E18C
:1021D0008093C4008091C10080618093C100809190
:1021E000C10088608093C1008091C10080688093A5
:1021F000C100EAE8F6E08491882341F09091C000A4
:1022000095FFFCCF8093C6003196F5CF8091C0003A
:1022100085FFFCCF8AE08093C600E3E6F6E0849178
:10222000882341F09091C00095FFFCCF8093C600B9
:102230003196F5CF8091C00085FFFCCF8AE0809376
:10224000C600E1E6F6E08491882341F09091C00059
:1022500095FFFCCF8093C6003196F5CF8091C000EA
:1022600085FFFCCF8AE08093C60084B780FF14C04E
:10227000E9E5F6E09491992341F02091C00025FF13
:10228000FCCF9093C6003196F5CF9091C00095FF9A
:10229000FCCF9AE09093C60081FF14C0E9E4F6E019
:1022A0009491992341F02091C00025FFFCCF909399
:1022B000C6003196F5CF9091C00095FFFCCF9AE013
:1022C0009093C60082FF14C0E8E3F6E0949199234E
:1022D00041F02091C00025FFFCCF9093C6003196BD
:1022E000F5CF9091C00095FFFCCF9AE09093C60087
:1022F00083FF14C0E8E2F6E09491992341F0209125
:10230000C00025FFFCCF9093C6003196F5CF909189
:10231000C00095FFFCCF9AE09093C60085FF14C0E3
:10232000E8E1F6E08491882341F09091C00095FFA8
:10233000FCCF8093C6003196F5CF8091C00085FF19
:10234000FCCF8AE08093C60014BEEBE0F6E08491F7
:10235000882341F09091C00095FFFCCF8093C60088
:102360003196F5CFE8EFF5E08491882341F0909124
:10237000C00095FFFCCF8093C6003196F5CF8091C9
:10238000C00085FFFCCF8AE08093C600E6EFF5E051
:102390008491882341F09091C00095FFFCCF8093F9
:1023A000C6003196F5CF8091C00085FFFCCF8AE052
:1023B0008093C600E4EEF5E08491882341F090918B
:1023C000C00095FFFCCF8093C6003196F5CFE9EDB4
:1023D000F5E08491882341F09091C00095FFFCCFF7
:1023E0008093C6003196F5CFEAECF5E0849188231E
:1023F00041F09091C00095FFFCCF8093C6003196CC
:10240000F5CFEDEBF5E08491882341F09091C00089
:1024100095FFFCCF8093C6003196F5CFEBEBF5E04E
:102420008491882341F09091C00095FFFCCF809368
:10243000C6003196F5CF8091C00085FFFCCF8AE0C1
:102440008093C6001092F6061092F7061092F806D6
:102450001092F90685DD1092850C1092860C109270
:10246000870C1092880C2091210230912202409119
:1024700023025091240260E070E08FE793E40E9411
:10248000D5616093810C7093820C8093830C909340
:10249000840C1092EE061092EF061092F006109245
:1024A000F1062091110230911202409113025091D5
:1024B000140260E070E08FE793E40E94D5616093BE
:1024C0007D0C70937E0C80937F0C9093800C249AEB
:1024D00080910101806280930101809101018064FB
:1024E0008093010187ED80937A0010927E00109214
:1024F0007D0080917D00806280937D0080917D00D1
:10250000806880937D0080917D00806480937D0051
:1025100080E888BD80916E00846080936E006AEFD1
:1025200070E080E090E00E9432251092160C10922C
:10253000150C80E1E5E5FCE0DF011D928A95E9F7E5
:102540001092410C1092420C1092430C1092440CC9
:102550001092450C1092460C1092470C1092480CA9
:102560001092490C10924A0C10924B0C10924C0C89
:1025700010924D0C10924E0C10924F0C1092500C69
:102580001092510C1092520C1092530C1092540C49
:10259000819A879A80910A01826080930A010E9A3B
:1025A0003B9A579A5F9A829A8A9A80910701816032
:1025B000809307019FB7F894809108018160809310
:1025C00008019FBF0A9A129A3F9A479A6D98759A86
:1025D000809104018D7F809304019FB7F8948091CE
:1025E00005018260809305019FBF53985B9A6C98A8
:1025F000749A809104018E7F809304019FB7F894B0
:10260000809105018160809305019FBF52985A9A7D
:10261000809A88985F9A1092120C869A8E988A9A5D
:102620001092130C80910A01886080930A019FB771
:10263000F89480910B01877F80930B019FBF9FB718
:10264000F894809108018160809308019FBF1092E7
:10265000140C0C9A1498129A399A4198809181001E
:102660008F7E8093810080918100886080938100BB
:10267000809180008D7F80938000809180008E7F8C
:1026800080938000809180008F7380938000809180
:1026900080008F7C8093800080918100887F8260A1
:1026A0008093810080E090E490938900809388007B
:1026B000109285001092840080916F008260809358
:1026C0006F0081E08093000278946BE070E08DE70A
:1026D00096E00E94173566E070E080E896E00E9480
:1026E000173565E070E083E896E00E941735BFEF8C
:1026F00023ED80E3B15020408040E1F700C00000AE
:1027000008950F931F93CF93DF93CDB7DEB76897EC
:102710000FB6F894DEBF0FBECDBF80E390E3A0E319
:10272000B0E08D839E83AF83B88704E610E0188FF6
:102730000F8B44E0BE016B5F7F4FCE0147960E9436
:102740006A0940E165E67CE0CE0147960E946A098D
:1027500040E164E277E0CE0147960E946A0940E1D9
:102760006FE576E0CE0147960E946A0944E06CE18D
:1027700077E0CE0147960E946A0944E060E277E084
:10278000CE0147960E946A0944E064E377E0CE01F7
:1027900047960E946A0944E068E377E0CE014796D5
:1027A0000E946A0944E06BE576E0CE0147960E94FC
:1027B0006A0948E060E372E0CE0147960E946A0928
:1027C00044E068E077E0CE0147960E946A0944E061
:1027D00064E077E0CE0147960E946A0944E060E039
:1027E00077E0CE0147960E946A094CE067E876E000
:1027F000CE0147960E946A0944E06CE672E0CE0181
:1028000047960E946A0944E068E672E0CE01479666
:102810000E946A0944E06AEE76E0CE0147960E9483
:102820006A0944E066EE76E0CE0147960E946A09A6
:102830004CE061E072E0CE0147960E946A094CE0EC
:1028400068E372E0CE0147960E946A0984EB90E04B
:102850009E8B8D8B86E490E09C8B8B8B8FEF90E032
:102860009A8B898B20EF30E0388B2F871E870D875E
:102870009C878B8742E0BE016B5E7F4FCE014796FF
:102880000E946A0942E0BE016D5E7F4FCE0147960D
:102890000E946A0942E0BE016F5E7F4FCE014796FB
:1028A0000E946A0942E0BE01615F7F4FCE014796F8
:1028B0000E946A0942E0BE01635F7F4FCE014796E6
:1028C0000E946A0942E0BE01655F7F4FCE014796D4
:1028D0000E946A0944E062EE76E0CE0147960E94CB
:1028E0006A0944E065E272E0CE0147960E946A09F7
:1028F00044E061E272E0CE0147960E946A0944E03A
:102900006DE172E0CE0147960E946A0980E290E094
:102910009A87898742E0BE01675F7F4FCE01479665
:102920000E946A094CE060E772E0CE0147960E947F
:102930006A0941E06FE676E0CE0147960E946A0997
:1029400044E06BE272E0CE0147960E946A0986E598
:1029500091E3A3E3B0E089839A83AB83BC83188FB0
:102960000F8B44E0BE016F5F7F4FCE0147960E9400
:102970006A09E0E8F4E08491882341F09091C00076
:1029800095FFFCCF8093C6003196F5CF8091C000B3
:1029900085FFFCCF8AE08093C60068960FB6F89456
:1029A000DEBF0FBECDBFDF91CF911F910F91089574
:1029B0004F925F926F927F928F929F92AF92BF924F
:1029C000EF92FF920F931F93CF93DF93CDB7DEB7B4
:1029D000A0970FB6F894DEBF0FBECDBF611571058D
:1029E0008105910541F48091C00085FFFCCF80E313
:1029F0008093C6003DC09E012F5F3F4F7901812C1F
:102A0000912C54018901442E512C612C712C3FEFE3
:102A1000831A930AA30AB30AA30192010E949B603E
:102A2000F70161937F01B901CA0161157105810543
:102A3000910569F7A40120E030E0F1E08F1A9108D8
:102A4000A108B108F401E21BF30BE00FF11F808134
:102A50008A3010F4805D01C0895C9091C00095FFC0
:102A6000FCCF8093C6002F5F3F4F2417350751F7E7
:102A7000A0960FB6F894DEBF0FBECDBFDF91CF9109
:102A80001F910F91FF90EF90BF90AF909F908F900C
:102A90007F906F905F904F90089597FF0EC02091A8
:102AA000C00025FFFCCF2DE22093C60090958095B5
:102AB000709561957F4F8F4F9F4F4AE079CF8F92EE
:102AC0009F92AF92BF92CF92DF92EF92FF92CF93FD
:102AD000DF936B017C01C42F20E030E0A9010E944C
:102AE000745D87FF0BC08091C00085FFFCCF8DE235
:102AF0008093C600F7FAF094F7F8F094D0E060E025
:102B000070E080E09FE3DC1741F020E030E040E23D
:102B100051E40E94D561DF5FF6CF9B01AC01C70194
:102B2000B6010E94F9606B017C010E9442624B0178
:102B30005C010E94785D9B01AC01C701B6010E9457
:102B4000F8606B017C014AE0C501B40131DFCC23A0
:102B500061F0E0EBF3E08191882339F09091C000BF
:102B600095FFFCCF8093C600F6CFCC2309F120E07F
:102B700030E040E251E4C701B6010E94C9594B015F
:102B80005C010E943D626B01770FEE08FF08C701F0
:102B9000B60183DFC701B6010E947A5D9B01AC01DB
:102BA000C501B4010E94F8606B017C01C150DDCF0A
:102BB000DF91CF91FF90EF90DF90CF90BF90AF90DB
:102BC0009F908F900895BC0180E090E04AE0F0DE95
:102BD0008091C00085FFFCCF8DE08093C60080917E
:102BE000C00085FFFCCF8AE08093C6000895CF9295
:102BF000DF92EF92FF920F931F93CF93DF936B01BE
:102C00007A0105E61CE0F80120813181428153817F
:102C1000FC0160817181828193810E94C9590E9467
:102C20002F63C5E5DCE0688379838A839B83F801A1
:102C30002481358146815781F601608171818281CD
:102C400093810E94C9590E942F636C837D838E8378
:102C50009F83F8012085318542855385F701608186
:102C60007181828193810E94C9590E942F63688774
:102C700079878A879B87F80124853585468557851E
:102C800060913D0C70913E0C80913F0C9091400CF6
:102C90000E94C9590E942F636C877D878E879F870A
:102CA0008FB7F894488159816A817B81E1E2FCE029
:102CB00040835183628373834C815D816E817F8108
:102CC0004483558366837783488559856A857B85E8
:102CD00040875187628773874C855D856E857F85C8
:102CE00044875587668777878FBF1092510C109263
:102CF000520C1092530C1092540CE1E4FCE0108240
:102D00001182128213821482158216821782108613
:102D10001186128613861486158616861786DF910D
:102D2000CF911F910F91FF90EF90DF90CF9008957A
:102D30004F925F926F927F928F929F92AF92BF92CB
:102D4000CF92DF92EF92FF920F931F93CF93DF9377
:102D500080911F0C9091200C039714F40E9491090C
:102D60000E946A25C0901B0CD0901C0CE0901D0C9A
:102D7000F0901E0C0091170C1091180C2091190C5A
:102D800030911A0CDC01CB018C199D09AE09BF09E9
:102D9000081719072A073B0730F4012B022B032BD6
:102DA00011F00E94FB3780905C0290905D02A09031
:102DB0005E02B0905F0281149104A104B104A1F0FD
:102DC0000E946A25DC01CB018C199D09AE09BF095F
:102DD00088169906AA06BB0638F49091160C8091C5
:102DE000150C981709F416C16091100C9091150CF0
:102DF0008091160C981781F08091150C9DE4899FA5
:102E0000F0011124E857F84F60819091160C891752
:102E100019F08F5F8F70F9CF70E089E00E946B240A
:102E200080913F07882309F407C1C0905802D090D1
:102E30005902E0905A02F0905B0260913D07709158
:102E40003E07072E000C880B990B0E947A5D20E04C
:102E500030E040E050E40E94F9609601A7010E9432
:102E6000745D87FDE9C0C091150C912CA12CB12C8B
:102E7000D0E08DE4882E8091160CC81709F456C056
:102E80008C2F90E0889EF001899EF00D1124E05C6B
:102E9000F84F4081518162817381452B462B472B2E
:102EA00081F44481558166817781452B462B472BE0
:102EB00041F44085518562857385452B462B472B10
:102EC00091F1889E8001899E100D1124005C184F9D
:102ED000F80164857585868597850E947A5D2B014A
:102EE0003C01F80160897189828993890E94785D2B
:102EF0009B01AC01C301B2010E94D561F80122A17E
:102F000033A144A155A10E94C9593B018C01292D2F
:102F10003A2D4B2D5D2F0E942463181624F4962C15
:102F2000A72CB02ED12FCF5FCF70A5CF2091540208
:102F3000309155024091560250915702692D7A2DD9
:102F40008B2D9D2F0E94C9599B01AC01B601C70171
:102F50000E94F9608B01D82FC92F9601A7010E940A
:102F6000745D87FF03C08601DE2DCF2DC090500217
:102F7000D0905102E0905202F09053029601A701C6
:102F8000B8018D2F9C2F0E94246318161CF4860113
:102F9000DE2DCF2DC090790CD0907A0CE0907B0C78
:102FA000F0907C0C98014D2F5C2FC701B6010E9458
:102FB00024631816D4F420E037ED43EA5CE3B8014B
:102FC0008D2F9C2F0E94C9594B015C0128E431EEE2
:102FD0004AE75FE3C701B6010E94C959A501940100
:102FE0000E94F9608B01D82FC92FC801AD2FBC2FCB
:102FF0008093790C90937A0CA0937B0CB0937C0C0B
:10300000B8018D2F9C2F0E943D6270933E07609304
:103010003D0712C05F9A1092120C8A9A1092130CFC
:103020009FB7F894809108018160809308019FBF49
:103030001092140C129AD8CEDF91CF911F910F915C
:10304000FF90EF90DF90CF90BF90AF909F908F90C8
:103050007F906F905F904F9008952F923F924F9284
:103060005F926F927F928F929F92AF92BF92CF9218
:10307000DF92EF92FF920F931F93CF93DF93CDB721
:10308000DEB7C257D1090FB6F894DEBF0FBECDBF71
:103090003C014B015A016901EBA2FBA60CA71DA73D
:1030A0008091160C8F5F6B968FAF6B97803119F400
:1030B0006B961FAE6B976B962FAD6B97022F220FFF
:1030C000110B8091150C90E08017910721F40E945C
:1030D000B5272EDEF6CF2091650C3091660C40911D
:1030E000670C5091680CD3016D917D918D919C91ED
:1030F0000E94C9590E942F636F966CAF7DAF8EAF4F
:103100009FAF6F972091690C30916A0C40916B0CC6
:1031100050916C0CF40160817181828193810E94D5
:10312000C9590E942F63A3966CAF7DAF8EAF9FAF3E
:10313000A39740906D0C50906E0C60906F0C709047
:10314000700CD5012D913D914D915C91C301B2015F
:103150000E94C9590E942F63A7966CAF7DAF8EAFB6
:103160009FAFA7972091710C3091720C4091730C16
:103170005091740CF60160817181828193810E946B
:10318000C9590E942F63AB966CAF7DAF8EAF9FAFD6
:10319000AB97E091160C2E2E312C2DE4E29FF0011E
:1031A0001124E457F84F10828091550C9091560CE1
:1031B000A091570CB091580C8AAB9BABACABBDAB9C
:1031C0006F968CAC9DACAEACBFAC6F97881A990A69
:1031D000AA0ABB0AB7FE08C0B094A0949094809449
:1031E000811C911CA11CB11C8DE4829DF001839D6A
:1031F000F00D1124E05CF84F80829182A282B382AC
:103200002091590C30915A0C40915B0C50915C0C00
:103210002EAB3FAB48AF59AFA396CCACDDACEEAC18
:10322000FFACA397C21AD30AE40AF50AF7FE08C056
:10323000F094E094D094C094C11CD11CE11CF11C0A
:103240008DE4829DF001839DF00D1124E05CF84F28
:10325000C482D582E682F78280915D0C90915E0CEB
:10326000A0915F0CB091600C8EA79FA7A8ABB9ABE3
:10327000A7966CAD7DAD8EAD9FADA7972EA53FA552
:1032800048A959A9621B730B840B950B97FF07C0C4
:1032900090958095709561957F4F8F4F9F4F0E94BD
:1032A0007A5D6FA378A789A79AA720E030E044E36E
:1032B00053E4C301B2010E94C9596AAF7BAF8CAF1E
:1032C0009DAF9B01AC016FA178A589A59AA50E942D
:1032D0002463181604F58DE4829D8001839D100DF2
:1032E0001124005C184F20E030E044EB53E4C301AC
:1032F000B2010E94C9592FA138A549A55AA50E941B
:10330000F8600E943D62D80118966D937D938D936D
:103310009C931B9713C08DE4829D8001839D100DAB
:103320001124005C184F6FA178A589A59AA50E9469
:103330003D62F80160877187828793874090610CB6
:103340005090620C6090630C7090640C10913C077C
:10335000AB966CAD7DAD8EAD9FADAB976419750925
:103360008609970997FF07C090958095709561959C
:103370007F4F8F4F9F4F0E947A5D24E0129FF00194
:103380001124E45BFD4F20813181428153810E94F1
:10339000C9590E943D629B01AC01A0914A02B091C3
:1033A0004B020E94E36024E630E040E050E00E94DF
:1033B000BD60FA018DE4829DD001839DB00D112482
:1033C000A05CB84F1C962C931C971D963C931D97A0
:1033D0001E964C931E971F96FC931F9718964D911F
:1033E0005D916D917C911B97C901DF018417950751
:1033F000A607B70714F4DB01CA01B501A4018C15B7
:103400009D05AE05BF0544F088169906AA06BB06C1
:1034100054F4AC01BD0107C08C149D04AE04BF047C
:1034200014F4B701A6018DE4829DF001839DF00D97
:103430001124E05CF84F408B518B628B738B4630CC
:1034400051056105710514F40C944323DF01A85B59
:10345000BF4F4091100C5091110C052E000C660BC3
:10346000770B4D935D936D937C9313976F968CAD13
:103470009DADAEADBFAD6F972AA93BA94CA95DA983
:1034800082179307A407B50714F010A202C081E0C9
:1034900080A3A3968CAD9DADAEADBFADA3972EA975
:1034A0003FA948AD59AD82179307A407B5075CF44F
:1034B0008DE4829DF001839DF00D1124E05CF84FB6
:1034C00080A1826080A36FA178A589A59AA50E949A
:1034D0003D6297FF07C090958095709561957F4FED
:1034E0008F4F9F4F0E947A5D2AAD3BAD4CAD5DADD5
:1034F0000E942463181684F4A7968CAD9DADAEADE2
:10350000BFADA7972EA53FA548A959A928173907E8
:103510004A075B07DCF40FC0A7968CAD9DADAEAD3E
:10352000BFADA7972EA53FA548A959A98217930714
:10353000A407B5075CF48DE4829DF001839DF00D36
:103540001124E05CF84F80A1846080A3AB968CAD21
:103550009DADAEADBFADAB9784159505A605B7057E
:103560005CF48DE4829DF001839DF00D1124E05CFC
:10357000F84F80A1886080A38DE4829DF001839D37
:10358000F00D1124E05CF84F11A389288A288B28BC
:1035900009F05F988DE4829DF001839DF00D112468
:1035A000E05CF84F84819581A681B781892B8A2BB5
:1035B0008B2B09F08A988DE4829DF001839DF00D9C
:1035C0001124E05CF84F80859185A285B385892B15
:1035D0008A2B8B2B41F09FB7F894809108018E7F46
:1035E000809308019FBF8DE4829DF001839DF00DC3
:1035F0001124E05CF84F84859585A685B785892BD5
:103600008A2B8B2B69F18091760C882319F08150DD
:103610008093760C8091770C882319F081508093E9
:10362000770C8091780C882319F081508093780C66
:1036300080913C07813061F030F0823089F480E283
:103640008093780C08C0129880E28093760C08C0B2
:1036500080E28093770C8091760C811101C0129AE0
:103660008DE4829DF001839DF00D1124E05CF84F04
:10367000248535854685578522962CAF3DAF4EAFC4
:103680005FAF2297232B242B252B49F4E09038079A
:10369000F090390700913A0710913B0708C0E0907D
:1036A0003407F090350700913607109137079701DE
:1036B000A8016BA17BA58CA59DA50E94745D87FFC9
:1036C00004C0EBA2FBA60CA71DA78091550C9091FE
:1036D000560CA091570CB091580C6F962CAD3DAD87
:1036E0004EAD5FAD6F97281B390B4A0B5B0BCA01C0
:1036F000B9010E947A5D2091650C3091660C409171
:10370000670C5091680C0E94D5616FA378A789A7B8
:103710009AA7698B7A8B8B8B9C8B8091590C90919B
:103720005A0CA0915B0CB0915C0CA3962CAD3DADF6
:103730004EAD5FADA397281B390B4A0B5B0BCA013B
:10374000B9010E947A5D2091690C30916A0C409118
:103750006B0C50916C0C0E94D5614B015C016D8B20
:103760007E8B8F8B988F8DE4829D8001839D100DC1
:103770001124005C184FD80118968D919D910D90E1
:10378000BC91A02D8AAB9BABACABBDABBC01CD015A
:103790000E947A5D26966CAF7DAF8EAF9FAF269765
:1037A00020916D0C30916E0C40916F0C5091700C0B
:1037B0000E94D5616B017C01698F7A8F8B8F9C8F02
:1037C0008091610C9091620CA091630CB091640C9B
:1037D000AB962CAD3DAD4EAD5FADAB97281B390B15
:1037E0004A0B5B0BCA01B9010E947A5D2091710CF2
:1037F0003091720C4091730C5091740C0E94D56101
:10380000E0913C0734E0E39FF0011124E45BFD4FBD
:1038100020813181428153810E94C9592B013C0191
:1038200060914A0270914B02072E000C880B990B95
:103830000E947A5D9B01AC01C301B2010E94C9598B
:1038400020E030E048EC52E40E94D5616D8F7E8F1D
:103850008F8F98A3D8012D913D914D915C91139735
:103860002EAB3FAB48AF59AF26303105410551056E
:10387000F4F414964D905D906D907C901797B6E09F
:103880004B1651046104710494F42AA93BA94CA974
:103890005DA926303105410551054CF4DC01CB0111
:1038A000BF77F80186A797A7A0ABB1AB2CC06FA1DB
:1038B00078A589A59AA50E94C6592B013C01C5018E
:1038C000B4010E94C6599B01AC01C301B2010E9420
:1038D000F9604B015C01C701B6010E94C6599B010A
:1038E000AC01C501B4010E94F9600E946D632DE432
:1038F000229DF001239DF00D1124E05CF84F66A796
:1039000077A780AB91AB8DE4829D8001839D100DE4
:103910001124005C184FD8019E968D909D90AD901B
:10392000BC90D197A501940160E070E080E89FE32E
:103930000E94D5619B01AC016BA17BA58CA59DA5C7
:103940000E94C9592B013C018091160C2091150C45
:1039500090E0821B9109FC01EF70FF27E196FFAF19
:10396000EEAFE197A3019201C501B4010E94C959CC
:103970002A966CAF7DAF8EAF9FAF2A97D8019296F3
:103980006D937D938D939C93959750966D917D91BA
:103990008D919C9153970E94785D6BA37CA38DA31E
:1039A0009EA3A30192010E94C9590E94BF610E9477
:1039B00042622E966CAF7DAF8EAF9FAF2E97F8010F
:1039C00060AF71AF82AF93AF9E012F5E3F4F3BAFB1
:1039D0002AAFAE014F5F5F4F5FA74EA784E297E02B
:1039E00068969FAF8EAF6897DE019196BAA3A9A3A0
:1039F00064965FAF4EAF64971BA61CA6B0E8BDA748
:103A0000EFE3EFA3AAADBBAD6D917D918D919D913B
:103A1000BBAFAAAFA30192010E94C9596496EEAD53
:103A2000FFAD649761937193819391936496FFAF17
:103A3000EEAF64976B017C01E894F7F86896AEAD41
:103A4000BFAD68972D913D914D915D916896BFAF47
:103A5000AEAF689762962CAF3DAF4EAF5FAF629747
:103A6000C701B6010E9424631816D4F4A701960179
:103A700062966CAD7DAD8EAD9FAD62970E94D561B3
:103A80007B018C019B01AC016BA57CA58DA59FA141
:103A90000E94745D87FD04C0EBA6FCA60DA71FA3C2
:103AA000EAADFBAD29A13AA1E217F30709F0AACFCD
:103AB00020E030E040E85FE36BA57CA58DA59FA1E9
:103AC0000E94745D87FF4AC08E010F5E1F4F2BA5B9
:103AD0003CA54DA55FA1AEA5BFA56D917D918D9132
:103AE0009C910E94C959EEA5FFA5619371938193A2
:103AF0009193FFA7EEA7E017F10749F78DE4829DA8
:103B00008001839D100D1124005C184F2BA53CA54E
:103B10004DA55FA12A966CAD7DAD8EAD9FAD2A9768
:103B20000E94C959D80192966D937D938D939C9371
:103B300095972E966CAD7DAD8EAD9FAD2E970E9464
:103B4000785D2BA53CA54DA55FA10E94C9590E9497
:103B50004262F80160AF71AF82AF93AFA5019401EB
:103B60006BA17CA18DA19EA10E94D5616B017C01FE
:103B70002EA93FA948AD59AD232B242B252B91F518
:103B80008DE4829D8001839D100D1124005C184FEF
:103B9000F80184819581A681B781892B8A2B8B2B93
:103BA00009F52AA93BA94CA95DA9232B242B252B78
:103BB000C9F42091200730912107409122075091AC
:103BC0002307C701B6010E94C9590E94BF610C5B5F
:103BD0001F4F0E944262D8016D937D938D939C93F9
:103BE000139718C120911C0730911D0740911E07A3
:103BF00050911F07C701B6010E94C9590E94BF61B9
:103C00000E9442622DE4229D8001239D100D11240B
:103C10000C57184FF80160837183828393838090DF
:103C20000C0790900D07A0900E07B0900F070E9410
:103C3000785D2B013C016EA97FA988AD99AD0E94EA
:103C40007A5D9B01AC01C301B2010E94C9592BA14D
:103C50003CA14DA15EA10E94D5612B013C01C50193
:103C6000B4010E94785D9B01AC01C301B2010E94C6
:103C70002463181634F4D8018D929D92AD92BC92B3
:103C800013974090100750901107609012077090A2
:103C900013072DE4229DC001239D900D11249C014A
:103CA000205C384F89010C5B1F4FF80160817181E6
:103CB00082819381E2962FAFE297E3963FAFE3973D
:103CC0000E94785D4B015C01E2962FADE297E3968E
:103CD0003FADE397D90114966D917D918D919C91A3
:103CE00017970E947A5D9B01AC01C501B4010E9447
:103CF000C9592BA13CA14DA15EA10E94D5614B01E8
:103D00005C01C301B2010E94785D9B01AC01C50159
:103D1000B4010E94246318162CF4F80140825182E9
:103D2000628273828090180790901907A0901A07FA
:103D3000B0901B078DE4829D8001839D100D11249E
:103D40000C57184FD8016D917D918D919C910E94D7
:103D5000785D2B013C0122966CAD7DAD8EAD9FADA3
:103D600022970E947A5D9B01AC01C301B2010E94BF
:103D7000C9592BA13CA14DA15EA10E94D5612B0187
:103D80003C01C501B4010E94785D9B01AC01C301F7
:103D9000B2010E94246318162CF4F80180829182EB
:103DA000A282B3828090140790901507A090160706
:103DB000B09017078DE4829D8001839D100D112422
:103DC0000C57184FD8016D917D918D919C910E9457
:103DD000785D26962CAD3DAD4EAD5FAD26970E9429
:103DE000C9592BA13CA14DA15EA10E94D5612B0117
:103DF0003C01C501B4010E94785D9B01AC01C30187
:103E0000B2010E94246318162CF4F801808291827A
:103E1000A282B3828DE4829D8001839D100D1124C6
:103E2000005C184FF801EC5BFF4F6081718182816B
:103E300093810E94785D4B015C01A70196010E946D
:103E4000D56166966CAF7DAF8EAF9FAF6697D80198
:103E5000D2966D937D938D939C93D5972DEB37E3FD
:103E600046E051E4C501B4010E94C9590E943D6277
:103E7000F801648F758F868F978FC0900807D09058
:103E80000907E0900A07F0900B0720E030E040E0DF
:103E90005FE3C701B6010E94C9596BA37BA78CA73A
:103EA0009DA729853A854B855C856A962CAF3DAFE9
:103EB0004EAF5FAF6A978091040790910507A0917C
:103EC0000607B09107072E968CAF9DAFAEAFBFAF80
:103ED0002E9720E030E040E05FE3BC01CD010E947E
:103EE000C9595B018C016A966CAD7DAD8EAD9FADFD
:103EF0006A979F779501A8010E942463181674F4AD
:103F00009501A8016BA17BA58CA59DA50E94745D60
:103F100087FD04C0ABA2BBA60CA71DA72D853E85BF
:103F20004F855889AF962CAF3DAF4EAF5FAFAF977F
:103F30008091000790910107A0910207B0910307BB
:103F400062968CAF9DAFAEAFBFAF629720E030E01E
:103F500040E05FE3BC01CD010E94C9595B018C01C7
:103F6000AF966CAD7DAD8EAD9FADAF979F77950150
:103F7000A8010E942463181674F49501A8016BA18E
:103F80007BA58CA59DA50E94745D87FD04C0ABA296
:103F9000BBA60CA71DA78DE4829DF001839DF00DAB
:103FA0001124E05CF84F92A19AAFA3A1AEAFB4A1E7
:103FB0002396BFAF239725A127962FAF2797292FA9
:103FC0003A2F4B2F27965FAD27976BA17BA58CA52A
:103FD0009DA50E94745D87FD0CC03AAD3BA34EAD1C
:103FE0004BA723965FAD23975CA727968FAD2797A6
:103FF0008DA7E196AEADBFADE19712970CF4EDC081
:10400000B091510CBFA3E091520CEEA7F091530C6C
:10401000FAAB2091540C2EAB27E137EB41ED58E37E
:104020006B2F7E2F8F2F9EA90E94246318160CF0F1
:10403000DDC02091410C3091420C4091430C5091D5
:10404000440C69817A818B819C810E94F8602B01EC
:104050003C012091450C3091460C4091470C509109
:10406000480C6D817E818F8198850E94F8604B019C
:104070005C01A3019201C301B2010E94C9592B0145
:104080003C01A5019401C501B4010E94C9599B01DD
:10409000AC01C301B2010E94F9600E946D634B0143
:1040A0005C01A70196010E94246318164CF4A50137
:1040B0009401C701B6010E94D5617B018C0104C047
:1040C000E12CF12C00E81FE32091490C30914A0CBF
:1040D00040914B0C50914C0C6A966CAD7DAD8EAD01
:1040E0009FAD6A970E94F8604B015C01E894B7F8B5
:1040F0002E962CAD3DAD4EAD5FAD2E97C501B401F2
:104100000E9424631816B4F4A50194012E966CAD98
:104110007DAD8EAD9FAD2E970E94D5615B016C0188
:104120009B01AC01B701C8010E94745D87FD02C00C
:104130007501860120914D0C30914E0C40914F0C31
:104140005091500CAF966CAD7DAD8EAD9FADAF97DD
:104150000E94F8604B015C01E894B7F862962CADC0
:104160003DAD4EAD5FAD6297C501B4010E942463C1
:104170001816B4F4A501940162966CAD7DAD8EADB8
:104180009FAD62970E94D5615B016C019B01AC0100
:10419000B701C8010E94745D87FD02C075018601E8
:1041A0009701A8016AAD7EAD23968FAD2397279620
:1041B0009FAD27970E94C9597B018C019B01AC01DF
:1041C0006FA17EA58AA99EA90E94745D87FD16C075
:1041D000EFA2FEA60AAB1EAB11C03BA13FA34BA5AD
:1041E0004EA75CA55AAB8DA58EAB08C09BA19FA323
:1041F000ABA5AEA7BCA5BAABEDA5EEAB8DE4829D99
:104200008001839D100D1124005C184F8FA19EA585
:10421000AAA9BEA9F80182A793A7A4A7B5A76696E5
:104220006CAD7DAD8EAD9FAD669790589B01AC0196
:104230000E94F960D8019E962D913D914D915C911F
:10424000D1970E94C9599B01AC016BE077ED83E2E5
:104250009BE30E94F8600E946D63B62EC72E7C011E
:10426000262F372FAC016FA17EA58AA99EA90E9497
:10427000745D87FD05C0DB2C8C2CAE2C9F2C04C0FC
:10428000DFA08EA4AAA89EA88DE4829D8001839DB4
:10429000100D1124005C184F8D2D982DAA2DB92DCD
:1042A000F80186A397A3A0A7B1A72B2D3C2DA701AA
:1042B0006AAD7EAD23968FAD239727969FAD279746
:1042C0000E94745D18162CF081E0D801D7968C936B
:1042D00002C0F80117AA2DE4229DC001239D900D74
:1042E00011249C01205C384F790181E0D901D696D8
:1042F0008C9380E1FE013196A1E4BCE001900D9227
:104300008A95E1F78AAD9EAD2396AFAD23972796A8
:10431000BFAD27978093510C9093520CA093530CF0
:10432000B093540C9C01AD016BA17BA58CA59DA500
:104330000E94D5612B013C012AAD3EAD23964FADC5
:10434000239727965FAD27976D2D782D8A2D992D70
:104350000E94D561AB01BC0193018201C7010E949B
:104360009C316B96BFAD6B97B093160C6F962CADCE
:104370003DAD4EAD5FAD6F972093550C3093560C0D
:104380004093570C5093580CA3968CAD9DADAEAD99
:10439000BFADA3978093590C90935A0CA0935B0CDC
:1043A000B0935C0CA7962CAD3DAD4EAD5FADA7971D
:1043B00020935D0C30935E0C40935F0C5093600C27
:1043C000AB968CAD9DADAEADBFADAB978093610CA0
:1043D0009093620CA093630CB093640C8091160CC4
:1043E0008FB7F8946090150C8FBF8091160C90E0F9
:1043F000861991098F70992704974CF41091150C28
:10440000F12C00E080E090E02DE4E22EA0C080914D
:10441000160C83508F70F82EA12CB12C00E010E008
:104420009DE4492E55245394F61441F38F2DF11039
:1044300001C080E1FF24FA94F80E4F9CC0011124C2
:10444000DC01A05CB84FBCA3ABA30115110509F4B6
:1044500069C0A114B10409F465C0F80172A4C3A431
:10446000D4A4E5A4272D3C2D4D2D5E2D66A177A16A
:1044700080A591A50E94745D882309F453C0D801DA
:10448000D7968C91811144C0F50186A097A0A0A475
:10449000B1A4A5019401672D7C2D8D2D9E2D0E9428
:1044A00024631816ACF5A5019401C501B4010E945E
:1044B000C9594B015C01F80182A993A9A4A9B5A926
:1044C000BC01CD0190589B01AC010E94F960D8015C
:1044D0009E962D913D914D915C91D1970E94C95925
:1044E0009B01AC01C501B4010E94F8600E946D639C
:1044F0001B015C019B01AC01672D7C2D8D2D9E2D38
:104500000E94745D87FD04C0722CC32CDA2CEB2C46
:10451000872D9C2DAD2DBE2DF80186A397A3A0A7B6
:10452000B1A756AA58010BA11CA17ECFE19E900114
:104530001124F901E05CF84F6F01009769F41F5FE7
:10454000103109F410E08F2D902FFC2C0D2D2091AF
:10455000160C1213EBCF0AC0DC01D7962C91211157
:10456000EECF6F2D702F0E94E530E9CF009741F01C
:10457000FC0127A9211104C06F2D702F0E94E53086
:10458000D090150CE12CF12C8DE4C82E4D2D0D2C66
:10459000000C550B8091160C90E04817590709F450
:1045A00047C0C49EC001C59E900D11249C01205C93
:1045B000384F1901E114F104A1F1D701D6968C917D
:1045C000811104C0F90186A9882359F1D701929677
:1045D0004D905D906D907C909597C49EF001C59E26
:1045E000F00D1124E05CF84FA301920166A177A1C0
:1045F00080A591A50E94D5614B015C01A3019201A8
:10460000F70166A177A180A591A50E94D561AB01B4
:10461000BC0195018401C7010E949C31D701D69647
:104620001C92D394B0E1DB1201C0D12C7101AECF4A
:10463000E114F10419F1F70182A093A0A4A0B5A0A0
:10464000A50194016DEC7CEC8CE49DE30E94D561A6
:104650002B013C01A5019401D70196966D917D91A6
:104660008D919C9199970E94D561AB01BC019301FA
:104670008201C7010E949C31F70116AA80916F0048
:10468000826080936F00CE58DF4F0FB6F894DEBF84
:104690000FBECDBFDF91CF911F910F91FF90EF9093
:1046A000DF90CF90BF90AF909F908F907F906F9052
:1046B0005F904F903F902F90089590E0FC013197CC
:1046C000E231F10508F04EC08827EE58FF4F8F4FBA
:1046D0000C94E563809180008F7703C08091800007
:1046E0008F7D80938000089580918000877FF9CF2F
:1046F00084B58F7702C084B58F7D84BD0895809185
:10470000B0008F7703C08091B0008F7D8093B000A0
:104710000895809190008F7707C0809190008F7DE1
:1047200003C080919000877F8093900008958091CE
:10473000A0008F7707C08091A0008F7D03C080917B
:10474000A000877F8093A0000895809120018F773B
:1047500007C0809120018F7D03C080912001877F59
:104760008093200108953FB7F8948091BE0C9091FA
:10477000BF0CA091C00CB091C10C26B5A89B05C080
:104780002F3F19F00196A11DB11D3FBFBA2FA92FD0
:10479000982F8827820F911DA11DB11DBC01CD014D
:1047A00042E0660F771F881F991F4A95D1F7089539
:1047B000CF93DF93282F30E0F901E851F74F849130
:1047C000F901EE55F74FD491F901E45AF74FC4912E
:1047D000CC2389F0811171DFEC2FF0E0EE0FFF1F89
:1047E000EE5BF74FA591B491EC91ED2381E090E061
:1047F00021F480E002C080E090E0DF91CF91089545
:104800001F93CF93DF93282F30E0F901E851F74F42
:104810008491F901EE55F74FD491F901E45AF74F1D
:10482000C491CC23C1F0162F811147DFEC2FF0E0AB
:10483000EE0FFF1FE85DF74FA591B4918FB7F89485
:10484000111105C09C91ED2FE095E92302C0EC9178
:10485000ED2BEC938FBFDF91CF911F910895CF93F4
:10486000DF9390E0FC01EE55F74F2491FC01E45AF0
:10487000F74F8491882361F190E0880F991FFC0124
:10488000E25FF74FC591D491FC01E85DF74FA59128
:10489000B491611109C09FB7F89488812095822353
:1048A0008883EC912E230BC0623061F49FB7F8949B
:1048B0003881822F809583238883EC912E2B2C9333
:1048C0009FBF06C08FB7F894E8812E2B28838FBF37
:1048D000DF91CF9108951F93CF93DF93182FEB01B2
:1048E00061E0BDDF209711F460E004C0CF3FD10547
:1048F00031F461E0812FDF91CF911F9181CFE12FC2
:10490000F0E0E851F74FE4914E2F50E0FA01319773
:10491000E231F10508F09DC08827EC57FF4F8F4F1B
:104920000C94E56384B5806884BDC7BD97C084B529
:10493000806284BDC8BD92C08091800080688093F1
:104940008000D0938900C093880088C08091800047
:10495000806280938000D0938B00C0938A007EC0D9
:1049600080918000886080938000D0938D00C093F8
:104970008C0074C08091B00080688093B000C093B8
:10498000B3006CC08091B00080628093B000C0938F
:10499000B40064C080919000806880939000D093B0
:1049A0009900C09398005AC08091900080628093D3
:1049B0009000D0939B00C0939A0050C080919000CB
:1049C000886080939000D0939D00C0939C0046C067
:1049D0008091A00080688093A0008091A0008F7BD0
:1049E0008093A000D093A900C093A80037C0809105
:1049F000A00080628093A000D093AB00C093AA0077
:104A00002DC08091A00088608093A000D093AD005D
:104A1000C093AC0023C08091200180688093200166
:104A2000D0932901C093280119C080912001806290
:104A300080932001D0932B01C0932A010FC0809155
:104A40002001886080932001D0932D01C0932C0118
:104A500005C0C038D1050CF04CCF46CFDF91CF91C7
:104A60001F9108958F929F92AF92BF92CF92DF9243
:104A7000EF92FF926B017C0176DE4B015C01C11469
:104A8000D104E104F104E9F06EDEDC01CB01881908
:104A90009909AA09BB09883E9340A105B10578F39D
:104AA00021E0C21AD108E108F10888EE880E83E0FF
:104AB000981EA11CB11CC114D104E104F10421F71A
:104AC000DECFFF90EF90DF90CF90BF90AF909F90A0
:104AD0008F9008952FB7F8946091BA0C7091BB0C29
:104AE0008091BC0C9091BD0C2FBF08951F920F9226
:104AF0000FB60F9211242F933F938F939F93AF93F1
:104B0000BF938091BA0C9091BB0CA091BC0CB0915A
:104B1000BD0C3091B90C23E0230F2D3720F4019602
:104B2000A11DB11D05C026E8230F0296A11DB11DD0
:104B30002093B90C8093BA0C9093BB0CA093BC0C3F
:104B4000B093BD0C8091BE0C9091BF0CA091C00C95
:104B5000B091C10C0196A11DB11D8093BE0C909324
:104B6000BF0CA093C00CB093C10CBF91AF919F91AB
:104B70008F913F912F910F900FBE0F901F9018951E
:104B800010923E0710923D0710927B0610927A0613
:104B90001092D1042C9810927B0610927A061092F3
:104BA000D2049FB7F894E2E0F1E080818F7D8083AA
:104BB0009FBF08951F920F920FB60F9211240BB64C
:104BC0000F922F933F934F935F936F937F938F93A6
:104BD0009F93AF93BF93EF93FF93809163028111F3
:104BE0001CC08091D1048093B80C882311F02C9ABA
:104BF00001C02C988091D2048093B70C9FB7882372
:104C000029F0F89480910201806204C0F8948091A8
:104C100002018F7D809302019FBF9091B80C80911B
:104C20006302981708F42C989091B70C8091630256
:104C3000981740F49FB7F894809102018F7D80937C
:104C400002019FBF809163028F5F8F778093630221
:104C50008091620290E08B30910508F08EC0FC01DB
:104C60008827EA56FF4F8F4F0C94E56388E08093C6
:104C70007B0085E480937C0080917A00806480933F
:104C80007A0081E019C020917800309179008091FC
:104C9000B30C9091B40CA091B50CB091B60C820FEE
:104CA000931FA11DB11D8093B30C9093B40CA093DE
:104CB000B50CB093B60C82E0809362025EC088E0CF
:104CC00080937B0086E480937C0080917A008064EE
:104CD00080937A0083E0F0CF2091780030917900C2
:104CE0008091AF0C9091B00CA091B10CB091B20C2E
:104CF000820F931FA11DB11D8093AF0C9093B00C38
:104D0000A093B10CB093B20C84E0D6CF88E080932E
:104D10007B0087E480937C0080917A00806480939C
:104D20007A0085E0C9CF2091780030917900809198
:104D3000AB0C9091AC0CA091AD0CB091AE0C820F6D
:104D4000931FA11DB11D8093AB0C9093AC0CA0934D
:104D5000AD0CB093AE0C86E0AFCF87E0ADCF88E06E
:104D6000ABCF89E0A9CF109262028091AA0C8F5F2D
:104D70008093AA0C02C0109262028091AA0C80312A
:104D800008F4AFC08091D004811110C08091B30CA1
:104D90009091B40C9093A90C8093A80C8091AF0CC7
:104DA0009091B00C9093A70C8093A60C81E0809317
:104DB000D0041092AA0C1092B30C1092B40C109262
:104DC000B50C1092B60C1092AB0C1092AC0C109269
:104DD000AD0C1092AE0C1092A20C1092A30C10927B
:104DE000A40C1092A50C1092AF0C1092B00C109263
:104DF000B10C1092B20C8091A80C9091A90C8F3F2D
:104E00009F43A4F1BDDE8091AF0681112DC0E7E084
:104E1000F8E08491882341F09091C00095FFFCCF89
:104E20008093C6003196F5CF60E070E0CB010E9420
:104E30004D158091C00085FFFCCF8AE08093C600AD
:104E4000EDEAF7E08491882341F09091C00095FF4E
:104E5000FCCF8093C6003196F5CF8091C00085FFCE
:104E6000FCCF8AE08093C6000E94C0378091A80CD6
:104E70009091A90C18161906A4F182DE8091AF0654
:104E800081112DC0E7E0F8E08491882341F09091F2
:104E9000C00095FFFCCF8093C6003196F5CF60E04F
:104EA00070E0CB010E944D158091C00085FFFCCFC2
:104EB0008AE08093C600EAEDF7E08491882341F010
:104EC0009091C00095FFFCCF8093C6003196F5CF3E
:104ED0008091C00085FFFCCF8AE08093C6000E94CD
:104EE000C037FF91EF91BF91AF919F918F917F91CB
:104EF0006F915F914F913F912F910F900BBE0F904B
:104F00000FBE0F901F9018956091A80C7091A90C7E
:104F1000072E000C880B990B0E947A5D20E030E090
:104F20004AEF5EE30E94C95920E030E040E85DE3CB
:104F30000E94C95920E030E0A9010E94F960609305
:104F40007606709377068093780690937906109290
:104F500072061092730610927406109275068FB73F
:104F6000F8941092D0048FBF08952F923F924F92E1
:104F70005F926F927F928F929F92AF92BF92CF92E9
:104F8000DF92EF92FF920F931F93CF93DF93CDB7F2
:104F9000DEB728970FB6F894DEBF0FBECDBF809165
:104FA000D004882309F47BC1AFDF8090760690900F
:104FB0007706A0907806B090790600913D07109191
:104FC0003E07B801012E000C880B990B0E947A5DF8
:104FD000A50194010E94F8606B017C0160939E0C16
:104FE00070939F0C8093A00C9093A10C20E030E074
:104FF00040EA51E40E942463181624F481E080936F
:105000009D0CF7C020E030E040EA51ECC701B6014A
:105010000E94745D87FD02C0012B21F481E0809322
:105020009D0C0CC180919D0C882351F01092990C1D
:1050300010929A0C10929B0C10929C0C10929D0C4A
:10504000209125023091260240912702509128029A
:10505000C701B6010E94C95969837A838B839C83F7
:105060006093950C7093960C8093970C9093980C8A
:105070002091990C30919A0C40919B0C50919C0C72
:10508000C701B6010E94F9602B013C012090850CFC
:105090003090860C1091870C0091880C9101412F63
:1050A000502F0E94745D87FD14C02090810C3090B9
:1050B000820C1091830C0091840C9101412F502F90
:1050C000B201C3010E94246318161CF01201162DB0
:1050D000072DC101A12FB02F8093990C90939A0CAA
:1050E000A0939B0CB0939C0C209121023091220242
:1050F0004091230250912402B101812F902F0E94F0
:10510000C9596D837E838F8398876093910C7093C8
:10511000920C8093930C9093940C20918D0C309171
:105120008E0C40918F0C5091900CC501B4010E94DF
:10513000F86020911D0230911E0240911F02509193
:1051400020020E94C95920ED3CEC4CE45DE30E9432
:10515000C9592B013C0123E333E343E75FE360914B
:10516000890C70918A0C80918B0C90918C0C0E9410
:10517000C9599B01AC01C301B2010E94F9602B0126
:105180003C016093890C70938A0C80938B0C9093F4
:105190008C0C2D813E814F81588569817A818B816C
:1051A0009C810E94F960A30192010E94F8602B018A
:1051B0003C0120E030E04FE753E40E94246320E00C
:1051C00030E0A9011816E4F4C701B6010E94246377
:1051D00018167CF4A7019601B101812F902F0E942F
:1051E000F8606093990C70939A0C80939B0C909349
:1051F0009C0C412C512C9FE7692E93E4792E21C001
:10520000C301B2010E94745D87FF1BC020E030E043
:10521000A901C701B6010E94745D87FF0FC0A701F5
:105220009601B101812F902F0E94F8606093990C34
:1052300070939A0C80939B0C90939C0C412C512C56
:10524000320180928D0C90928E0CA0928F0CB092B5
:10525000900C20E030E0A901C501B4010E94246354
:105260001816DCF46091600270916102072E000C48
:10527000880B990B0E947A5D9B01AC01C501B401BA
:105280000E94745D87FF09C0C301B2010E943D62A4
:10529000759567956093D10402C01092D104289649
:1052A0000FB6F894DEBF0FBECDBFDF91CF911F9137
:1052B0000F91FF90EF90DF90CF90BF90AF909F90B5
:1052C0008F907F906F905F904F903F902F900895B8
:1052D0002091210230912202409123025091240218
:1052E00060E070E08FE793E40E94D5616093810CE9
:1052F0007093820C8093830C9093840C2091110204
:1053000030911202409113025091140260E070E05B
:105310008FE793E40E94D56160937D0C70937E0CBF
:1053200080937F0C9093800C089511D05F9AE2E1F6
:10533000FCE010828A9A11829FB7F894A8E0B1E04D
:105340008C9181608C939FBF1282129A08959091E4
:10535000160C8091150C981721F007DE0E94981604
:10536000F6CF08951F920F920FB60F9211240BB62D
:105370000F920F931F932F933F934F935F936F93CE
:105380007F938F939F93AF93BF93CF93DF93EF93CD
:10539000FF93E091700DF091710D309709F080C18D
:1053A0009091160C8091150C981769F0E091150CEE
:1053B0002DE4E29FF0011124E05CF84FDF01A45BD3
:1053C000BF4F81E08C93F093710DE093700D309797
:1053D00009F460C1DF01A45BBF4F21E02C93109260
:1053E0006C0D10926D0D10926E0D10926F0D80ADC0
:1053F00091AD81343CE9930728F481326EE496073D
:1054000048F002C080E49CE996958795969587952B
:1054100024E007C0813177E2970730F096958795B1
:1054200022E020936B0D07C020936B0D8032910515
:1054300010F480E290E08097811528E09207E8F070
:10544000E92FFF27EE0FFF1FEE0FFF1F9F01225DC9
:10545000324FF901329665917491AA27879FA00176
:10546000869F410D5A1F06944A1F5A1F1124F901A5
:1054700025913491241B350B20C09C01369527952E
:105480002C7F225D364FF90145915491F9013296F6
:10549000A591B491BC0167707727A69F9001A79F43
:1054A000300DB69F300D112413E0369527951A95CF
:1054B000E1F7BA01621B730B9B012436310580F4BE
:1054C000ECEDF3E02191222339F03091C00035FF5B
:1054D000FCCF2093C600F6CF0E94E31524E630E00F
:1054E00030936A0D2093690D80916B0D082E000C8E
:1054F000990B9093680D8093670DE091700DF0917A
:10550000710D84AD95AD9093660D8093650D8134DA
:105510007CE9970728F481322EE4920748F002C014
:1055200080E49CE9969587959695879524E007C039
:10553000813137E2930730F09695879522E02093EA
:105540006B0D08C021E020936B0D8032910510F4A3
:1055500080E290E08097811568E09607E8F0E92FF7
:10556000FF27EE0FFF1FEE0FFF1F9F01225D324F3F
:10557000F901329665917491AA27879FA001869FB1
:10558000410D5A1F06944A1F5A1F1124F9012591F3
:105590003491241B350B20C09C01369527952C7F18
:1055A000225D364FF90145915491F9013296A5914A
:1055B000B491BC0167707727A69F9001A79F300D1B
:1055C000B69F300D112473E0369527957A95E1F753
:1055D000BA01621B730B9B012436310580F4ECED9C
:1055E000F3E02191222339F03091C00035FFFCCF48
:1055F0002093C600F6CF0E94E31524E630E0C901EF
:10560000A0E0B0E08093610D9093620DA093630DD4
:10561000B093640D3093890020938800E091700D61
:10562000F091710D80899189A289B389B695A7956A
:1056300097958795B095A095909581959F4FAF4F81
:10564000BF4F80935D0D90935E0DA0935F0DB0935F
:10565000600D8093590D90935A0DA0935B0DB093FC
:105660005C0D8093550D9093560DA093570DB093FC
:10567000580D8093510D9093520DA093530DB093FC
:10568000540D10924D0D10924E0D10924F0D109220
:10569000500D06C080ED97E09093890080938800BC
:1056A000E091700DF091710D309709F477C580A1EC
:1056B00080934C0D80FF03C0899A8FEF02C08998B8
:1056C00081E08093640280914C0D81FF03C08F9A2A
:1056D0008FEF02C08F9881E08093650220914C0D7E
:1056E0009091000220FF3CC0992309F472C0659993
:1056F00002C080E032C080914B0D882309F44CC574
:10570000E091700DF091710D408151816281738142
:1057100014161506160617060CF03EC54091210C0E
:105720005091220C6091230C7091240C4093B00690
:105730005093B1066093B2067093B30681E08093F4
:10574000BE06408951896289738940934D0D5093FB
:105750004E0D60934F0D7093500D80934B0D39C0DB
:105760009923B9F18CB131E082958170832779F169
:1057700040914A0D442359F1E091700DF091710D63
:105780004081518162817381141615061606170631
:10579000F4F44091210C5091220C6091230C7091F3
:1057A000240C4093B0065093B1066093B2067093F8
:1057B000B3063093BE06408951896289738940934C
:1057C0004D0D50934E0D60934F0D7093500D80937F
:1057D0004A0D21FF3DC0992309F476C08091030151
:1057E00081FD02C080E031C08091490D882361F1C4
:1057F000E091700DF091710D84819581A681B78142
:10580000181619061A061B06FCF48091250C9091B7
:10581000260CA091270CB091280C8093B40690938D
:10582000B506A093B606B093B70681E08093BD0697
:1058300080899189A289B38980934D0D90934E0DF3
:10584000A0934F0DB093500D81E08093490D3CC063
:105850009923D1F180910301817091E08927382F3C
:105860003170882379F18091480D882359F1E091B6
:10587000700DF091710D4481558166817781141608
:10588000150616061706F4F44091250C5091260CC7
:105890006091270C7091280C4093B4065093B50684
:1058A0006093B6067093B7069093BD068089918980
:1058B000A289B38980934D0D90934E0DA0934F0D07
:1058C000B093500D3093480D9FB722FF48C0F89415
:1058D00080910B018D7F80930B019FBF8FEF809391
:1058E000660280910002882309F47EC089B191E0AC
:1058F00083FB882780F9892779F12091470D22239E
:1059000059F1E091700DF091710D408551856285DE
:1059100073851416150616061706F4F44091290C23
:1059200050912A0C60912B0C70912C0C4093B8066E
:105930005093B9066093BA067093BB069093BC0669
:10594000408951896289738940934D0D50934E0D62
:1059500060934F0D7093500D8093470D45C0F894A0
:1059600080910B01826080930B019FBF91E0909327
:105970006602809100028823B9F189B182FB8827F1
:1059800080F9892779F12091460D222359F1E09180
:10599000700DF091710D40855185628573851416E7
:1059A000150616061706F4F44091290C50912A0C9E
:1059B00060912B0C70912C0C4093B8065093B90653
:1059C0006093BA067093BB069093BC0640895189D8
:1059D0006289738940934D0D50934E0D60934F0D26
:1059E0007093500D8093460D80914C0D83FF06C03F
:1059F000169A8FEF8093670220E0A7C1169881E086
:105A0000F9CF8091C00087FDA6C1E091700DF091A3
:105A1000710D40915D0D50915E0D60915F0D709123
:105A2000600D80819181A281B381840F951FA61F93
:105A3000B71F80935D0D90935E0DA0935F0DB093A3
:105A4000600D181619061A061B06CCF5889AE09107
:105A5000700DF091710D80915D0D90915E0DA09192
:105A60005F0DB091600D4089518962897389841BF3
:105A7000950BA60BB70B80935D0D90935E0DA093D5
:105A80005F0DB093600D809164024091210C5091A4
:105A9000220C6091230C7091240C082E000C990BA1
:105AA000AA0BBB0B840F951FA61FB71F8093210C59
:105AB0009093220CA093230CB093240C8898E0912F
:105AC000700DF091710D4091590D50915A0D6091EA
:105AD0005B0D70915C0D84819581A681B781840FE7
